:100000000C94F6000C9467100C9492100C94BD1094
:100010000C94E8100C9413110C943E110C9469117B
:100020000C9494110C9415010C9415010C94150169
:100030000C94A2060C9415010C9415010C94150156
:100040000C9415010C9415010C9415010C941501D8
:100050000C9415010C9415010C9415010C941501C8
:100060000C9415010C9415010C9415010C941501B8
:100070000C9415010C9415010C94E5050C941501D4
:100080000C9499050C9415010C94150146454443B4
:100090004233363941323538303134376E616E0093
:1000A000696E66006364696E6F70737578585B651E
:1000B000666745464700616E006E66696E697479D1
:1000C00000CDCCCC3D0AD7233C17B7D13877CC2B09
:1000D000329595E6241FB14F0A000020410000C868
:1000E0004200401C4620BCBE4CCA1B0E5AAEC59DE9
:1000F0007400407A10F35A00A0724E18090010A53F
:10010000D4E80000E87648170000E40B5402000031
:10011000CA9A3B000000E1F50500008096980000B7
:100120000040420F000000A08601000000102700E0
:10013000000000E803000000006400000000000A66
:1001400000000000000100000000002C76D888DCD0
:10015000674F0823DFC1DFAE59E1B1B796E5E3E4AD
:1001600053C63AE651997696E8E6C28426EB898C26
:100170009B62ED407C6FFCEFBC9C9F40F2BAA56F88
:10018000A5F490055A2AF75C936B6CF9676DC11B57
:10019000FCE0E40D47FEF520E6B500D0ED902E031F
:1001A00000943577050080841E080000204E0A0068
:1001B0000000C80C333333330F986E12831141EFB4
:1001C0008D2114893BE65516CFFEE6DB18D1844B12
:1001D000381BF77C1D901DA4BBE424203284725E82
:1001E000228100C9F124ECA1E53D270011241FBEA6
:1001F000CFEFD0E1DEBFCDBF12E0A0E0B1E0EAE397
:10020000F2E400E00BBF02C007900D92AE35B107DB
:10021000D9F713E0AEE5B2E001C01D92A939B107EC
:10022000E1F70E9417010C941B210C940000EF923F
:10023000FF920F931F93DF93CF9300D0CDB7DEB71C
:100240000E9445038AEC63E040E023E00E948B0FAC
:100250008DEC60E144E020E00E948B0F7E01089469
:10026000E11CF11C8E010E5F1F4F06C08BEC60E19C
:1002700044E097010E94181089818823B9F782E031
:1002800064E641E098010E94D6038BEC60E144E013
:1002900021E00E940710F0CF1F93182F8A3019F425
:1002A0008DE00E944C015D9BFECF1CB980E090E088
:1002B0001F9108951F93BC015F9BFECF1CB1812F3E
:1002C0000E944C01812F90E01F910895382F8430B7
:1002D00010F081E00895483010F082E00895822FF8
:1002E00090E002C0880F991F4A95E2F7282F31301D
:1002F00089F0313028F03230B9F03330F1F41FC0DA
:100300008AB3862B8ABB8BB3262360958623282B42
:100310002BBB13C087B3862B87BB88B3262360957E
:100320008623282B28BB09C084B3862B84BB85B3C6
:10033000262360958623282B25BB80E0089582B173
:10034000862B82B983B1262360958623282B23B977
:1003500080E00895F901843010F081E0089548307C
:1003600010F082E008958130B9F0813028F08230B9
:1003700019F18330C1F539C08AB3882329F09AB3C3
:10038000862F8095892305C08AB3882319F4862F88
:1003900080958ABB89B31FC087B3882329F097B3A0
:1003A000862F8095892305C087B3882319F4862F6B
:1003B000809587BB86B30FC084B3882329F094B39C
:1003C000862F8095892305C084B3882319F4862F4E
:1003D000809584BB83B3862390E002C09595879572
:1003E0004A95E2F7808380E0089582B1882329F05E
:1003F00092B1862F8095892305C082B1882319F494
:10040000862F809582B981B1862390E002C09595B0
:1004100087954A95E2F7808380E00895DF92EF9216
:10042000FF920F931F93CF93DF93082FD62EE72EC3
:10043000813210F081E02AC00E94E80D8B3A29F544
:100440000E94E80D8B3A09F50E94E80D8B3AE9F419
:100450000E94E80DF82E182F8D2D9E2D9C01E9018C
:1004600004C00E94E80D8993180F9E012D192017D2
:10047000C0F30E94E80DF01611F083E007C0811769
:1004800011F480E003C084E001C082E0DF91CF91ED
:100490001F910F91FF90EF90DF900895AF92BF9260
:1004A000CF92DF92EF92FF920F931F93CF93DF9340
:1004B000182F092FE62EB42EA52E2FEF621711F458
:1004C00081E045C00E94E80D8B3A09F03FC00E94D0
:1004D000E80D8B3AD9F50E94E80D8B3AB9F50E94E8
:1004E000E80DF82E0E94E80DC82EA12FB02FFD01B7
:1004F00001900020E9F73197DE2ED11A212F302FFD
:10050000C901EC010C2D10E005C00E94E80D899393
:10051000080F1F5F1D15C8F38B2D9A2D9C01E90153
:1005200004C00E94E80D8993080F9E012B192E1517
:10053000C0F30E94E80DFC18FE1411F083E007C020
:10054000801711F480E003C084E001C082E0DF91F5
:10055000CF911F910F91FF90EF90DF90CF90BF90C0
:10056000AF900895AF92BF92CF92DF92EF92FF9239
:100570000F931F93CF93DF93D82EC92EE62EB42E60
:10058000A52E8BEB0E94E40D8BEB0E94E40D8BEB10
:100590000E94E40DED2DFC2DEF0109900020E9F7FC
:1005A0002197CE1BDF0B0C2F8C2F90E001968E0D28
:1005B000911D8F3F910519F014F081E02CC00F5F61
:1005C000102F1E0D0150812F0E94E40D8C2F0E94D0
:1005D000E40DF12EF00E2D2D3C2DC901EC0110E0A3
:1005E00006C088810E94E40D8991F80E1F5F1017E4
:1005F000C0F38B2D9A2D9C01E90100E006C0888193
:100600000E94E40D8991F80E0F5F0E15C0F38F2D37
:100610000E94E40D80E0DF91CF911F910F91FF9038
:10062000EF90DF90CF90BF90AF900895EF92FF9240
:100630000F931F93CF93DF93082F7B01813210F02C
:1006400081E01CC08AEA0E94E40D8AEA0E94E40D5F
:100650008AEA0E94E40D802F0E94E40D102FE7012A
:1006600005C088810E94E40D8991180F9E012E1902
:100670002017B8F3812F0E94E40D80E0DF91CF9125
:100680001F910F91FF90EF9008951092900091E1CB
:1006900099B98AB188618AB9E5E9F0E0808186601C
:1006A00080831092980090939900EAE9F0E08081AD
:1006B00088618083EDE9F0E080818660808380E05E
:1006C00091E0909396038093950390939403809385
:1006D000930387B3806E87BB80E00E94850D0E94E4
:1006E000EE04789480E0089587EE87BB83E58DB9AA
:1006F0000895FF920F931F93782F142FF22E8830B6
:1007000010F081E04AC0862F885C813110F082E0D1
:1007100044C087E0821710F483E03FC0683C19F1C1
:10072000E72FF0E0EE0FFF1FEE0FFF1FEE58FD4F1B
:10073000262F30E0295C304081E090E002C0880F35
:10074000991F2A95E2F7AA2797FDA095BA2F208135
:10075000318142815381822B932BA42BB52B808333
:100760009183A283B383202F30E002C0220F331F76
:10077000FA94E2F7872F90E0FC0134E0EE0FFF1FC0
:100780003A95E1F7E80FF91FED50FD4FE60FF11D27
:10079000E85CF0401223108380E01F910F91FF90DE
:1007A00008958FEF8FB90E94AB0D0895DF92EF92FD
:1007B000FF920F931F93CF93DF93D82E162F042F02
:1007C00079018DEC60E144E020E00E94BF118CECE7
:1007D00060E144E020E00E94BF1187E08D1510F435
:1007E00081E0A4C0193D08F09CC0183C08F078C016
:1007F000143609F096C0013009F095C087EE87BB2A
:1008000083E58DB98D2D0E94850D80E09CE60197D2
:10081000F1F70E94D103082F0E94D103182F80E026
:100820000E94850D011709F056C0002309F453C03A
:10083000AD2DB0E0FD0114E0EE0FFF1F1A95E1F7BA
:10084000EA0FFB1FED50FD4F8081882321F40150FA
:10085000F70100830F5FED0174E0CC0FDD1F7A9587
:10086000E1F7CA0FDB1FCD50DD4F8881813009F0E1
:100870005CC0013019F4F701108257C0E02FF0E09E
:10088000329721E030E00E2E02C0220F331F0A946F
:10089000E2F7442737FD4095542FAA0FBB1FAA0F3C
:1008A000BB1FAE58BD4F8D919D910D90BC91A02D59
:1008B00082239323A423B52382179307A407B507A4
:1008C00021F4EC0FFD1F818103C0E457FF4F849199
:1008D000F70180832AC08FEFF701808384E026C070
:1008E000612F70E0AB01400F511D4A3D5105DCF412
:1008F00081E1D89ED0011124A60FB71FA55DBD4F81
:1009000020E030E007C0F701E20FF31F8D918083F4
:100910002F5F3F4FC901860F971F841795079CF3E0
:1009200004C082E003C083E001C080E0DF91CF918A
:100930001F910F91FF90EF90DF900895EF92FF923B
:100940000F931F93CF93DF93F82EEB0187EE87BBB6
:1009500083E58DB98F2D0E94850D0DE313E0C8014D
:100960000197F1F70E94D103E82E80E00E94850DE7
:10097000C8010197F1F78F2D0E94850DC8010197DD
:10098000F1F70E94D103F82E80E00E94850DC80186
:100990000197F1F7EF1409F4E8828FB190E08F3FEF
:1009A00009F491E0892FDF91CF911F910F91FF9072
:1009B000EF9008950E94A60D0895FC0160830895AC
:1009C0001092B902EAE9F0E080818068808308959E
:1009D000EAE9F0E080818F77808308958EB58860A2
:1009E0008EBD8EB582608EBD87B7806187BF8FE870
:1009F00090E09BBD8ABD1DBC1CBC08958EE1809318
:100A0000E80208950F931F93CF93DF93EC018A01BF
:100A1000898170E0E82FF0E09B012E0F3F1F8A8153
:100A200090E08217930764F1AF014C5F5F4F4C0F6A
:100A30005D1F20E030E00DC0DA01A20FB31FF80106
:100A4000E20FF31F80818C9388818F5F88832F5FF3
:100A50003F4F2617370784F358814981242F30E010
:100A6000250F311D8A8190E0450F2817390711F4B1
:100A700081E001C082E08B834983188280E002C05C
:100A800081E08B83DF91CF911F910F9108950F9398
:100A90001F93CF93DF93EC01962F8981861710F473
:100AA00081E042C08881682F70E06C5F7F4F6C0FDF
:100AB0007D1F20E030E0092F10E00DC0DA01A20F09
:100AC000B31FFB01E20FF31F80818C9388818F5F3E
:100AD00088832F5F3F4F2017310784F38881082FC9
:100AE00010E0DB01A00FB11F40E050E008C0FB01A7
:100AF000E40FF51F8C9180831D924F5F5F4FE9815A
:100B00009A01200F311F8E2F90E0281739077CF3B0
:100B100098819E1719F41B82198204C082E08B838E
:100B2000E91BE983188280E0DF91CF911F910F913B
:100B300008951F920F920FB60F920BB60F921124C9
:100B40002F933F934F935F936F937F938F939F93D5
:100B5000AF93BF93EF93FF9380911101882361F0CE
:100B60008EE091E061E047EE52E00E9447058091FF
:100B7000E70280939C0005C080919A008F7B809350
:100B80009A00FF91EF91BF91AF919F918F917F91CB
:100B90006F915F914F913F912F910F900BBE0F90EE
:100BA0000FBE0F901F901895FC0181E0838308957C
:100BB000FC0113821182108280E090E01482019681
:100BC000319680329105D1F708951F920F920FB69A
:100BD0000F920BB60F9211242F933F934F935F9375
:100BE0006F937F938F939F93AF93BF93EF93FF93F5
:100BF00090919C009093C0028091B902823031F1B3
:100C0000833030F4882359F0813009F088C00CC05B
:100C1000833009F44CC0843009F081C06CC0903F2F
:100C200009F065C081E061C080919202981721F4BB
:100C300082E08093B90207C01092B90280919A00B5
:100C40008F7780939A001092C10251C09923B9F412
:100C500080919302823039F483E08093B9028091CD
:100C6000950290E007C0843051F483E08093B9028C
:100C700081E090E09093BF028093BE0207C084E0C1
:100C80008093B9021092BF021092BE0282E391E0FB
:100C900061E040EC52E00E9402058091C002809326
:100CA000C5029091C102980F9093C10220C082E3C7
:100CB00091E061E040EC52E00E9402058091C002A8
:100CC0009091C102890F8093C1028091BE029091E0
:100CD000BF0201979093BF028093BE028091BE0233
:100CE0009091BF02892B19F484E08093B9028EE1C0
:100CF0008093E80214C08091C102981721F481E02A
:100D00008093350104C082E391E00E94D8058EE112
:100D10008093E80280919A008F7780939A00FF91E8
:100D2000EF91BF91AF919F918F917F916F915F9163
:100D30004F913F912F910F900BBE0F900FBE0F90D0
:100D40001F9018951F920F920FB60F920BB60F922D
:100D500011242F933F934F935F936F937F938F93C0
:100D60009F93AF93BF93EF93FF938091BA0281302B
:100D700079F0813018F0823061F525C09091BD0284
:100D8000913039F58EE18093E8029093BA0221C048
:100D90008091E80281508093E8028091E8028823E4
:100DA00069F480919A008F7780939A0082E391E0B2
:100DB0000E94D80582E08093BA020BC080919A000D
:100DC00087FD07C004C08091BD02882311F41092F2
:100DD000BA02FF91EF91BF91AF919F918F917F9157
:100DE0006F915F914F913F912F910F900BBE0F909C
:100DF0000FBE0F901F901895EF92FF920F93DF9305
:100E0000CF93CDB7DEB728970FB6F894DEBF0FBEED
:100E1000CDBF6D834E832F830887198294E09A8318
:100E20000E94850D809161008061809361008091B6
:100E300062008061809362008A819981890F9E811E
:100E4000890F9F81890F9885890F89838EE091E0B2
:100E500061E0AE014B5F5F4F0E9402058EE091E0C2
:100E600061E0AE014E5F5F4F0E9402058EE091E0AF
:100E700061E0AE014A5F5F4F0E9402058EE091E0A3
:100E800061E0AE01495F5F4F0E9402058EE091E094
:100E900061E0AE01485F5F4F0E9402058EE091E085
:100EA00061E0AE014F5F5F4F0E9402058D8180932C
:100EB00092028A818093930280EF0E94930D809129
:100EC0009A00806480939A0080919A0086FDFCCFFE
:100ED000809162008F7E809362001092B9028091AF
:100EE0009A00806880939A0081E08093BD0280918F
:100EF0003501813021F08091BA028230C1F7109221
:100F0000BD0280913501813011F081E019C082E38A
:100F100091E061E0AE014D5F5F4F0E9447058B811C
:100F2000882359F482E391E061E0AE014C5F5F4FAA
:100F30000E9447058C81F70180838B81880F880F81
:100F400028960FB6F894DEBF0FBECDBFCF91DF91CC
:100F50000F91FF90EF900895EF920F93DF93CF934F
:100F6000CDB7DEB728970FB6F894DEBF0FBECDBF62
:100F70006C834D832E830F83E886198293E09A83D6
:100F80000E94850D80916100806180936100809155
:100F900062008061809362008A819981890F9D81BE
:100FA000890F9E81890F9F81890F9885890F898379
:100FB0008EE091E061E0AE014C5F5F4F0E94020560
:100FC0008EE091E061E0AE014E5F5F4F0E9402054E
:100FD0008EE091E061E0AE014B5F5F4F0E94020541
:100FE0008EE091E061E0AE014A5F5F4F0E94020532
:100FF0008EE091E061E0AE01495F5F4F0E94020523
:101000008EE091E061E0AE01485F5F4F0E94020513
:101010008EE091E061E0AE014F5F5F4F0E940205FC
:101020008C81809392028A818093930280EF0E9448
:10103000930D80919A00806480939A0080919A0029
:1010400086FDFCCF809162008F7E809362001092BB
:10105000B90280919A00806880939A0081E0809321
:10106000BD0280913501813021F08091BA02823039
:10107000C1F71092BD0280913501813011F081E0FD
:101080000BC082E391E061E0AE014D5F5F4F0E94D3
:1010900047058B81880F880F28960FB6F894DEBF1E
:1010A0000FBECDBFCF91DF910F91EF900895CF92FA
:1010B000DF92EF92FF920F931F93DF93CF93CDB701
:1010C000DEB727970FB6F894DEBF0FBECDBF6D8396
:1010D0004E832F836801198292E09A830E94850DC6
:1010E00080916100806180936100809162008061E5
:1010F000809362008A819981890F9E81890F9F81E7
:10110000890F89838EE091E061E0AE014B5F5F4F14
:101110000E9402058EE091E061E0AE014E5F5F4FFC
:101120000E9402058EE091E061E0AE014A5F5F4FF0
:101130000E9402058EE091E061E0AE01495F5F4FE1
:101140000E9402058EE091E061E0AE014F5F5F4FCB
:101150000E9402058D81809392028A81809393027E
:101160008F818093950280EF0E94930D80919A0069
:10117000806480939A0080919A0086FDFCCF8091D4
:1011800062008F7E809362001092B90280919A0073
:10119000806880939A0081E08093BD028091350140
:1011A000813021F08091BA028230C1F71092BD02E5
:1011B00080913501813011F081E028C082E391E017
:1011C00061E0AE014D5F5F4F0E9447058B81882330
:1011D000D1F400E010E084E0E82EF12CEC0EFD1ECE
:1011E0000DC082E391E061E0A7010E944705F6018E
:1011F000E00FF11F8C8180830F5F1F4F8F8190E084
:101200000817190774F38B81880F880F27960FB67C
:10121000F894DEBF0FBECDBFCF91DF911F910F912C
:10122000FF90EF90DF90CF9008950F931F93DF937F
:10123000CF9300D000D000D0CDB7DEB76C834D8304
:101240002E83198291E09A830E94850D809161001E
:101250008061809361008091620080618093620070
:101260008A819981890F9D81890F9E81890F898348
:10127000F8019801290F311D04C089819191890FCE
:101280008983E217F307C9F78EE091E061E0AE01D0
:101290004C5F5F4F0E9402058EE091E061E0AE017D
:1012A0004E5F5F4F0E9402058EE091E061E0AE016B
:1012B0004B5F5F4F0E9402058EE091E061E0AE015E
:1012C0004A5F5F4F0E9402058EE091E06E81A801A7
:1012D0000E9402058EE091E061E0AE014F5F5F4F3A
:1012E0000E9402058C81809392028A8180939302EE
:1012F00080EF0E94930D80919A00806480939A0001
:1013000080919A0086FDFCCF809162008F7E809351
:1013100062001092B90280919A00806880939A00CE
:1013200081E08093BD0280913501813021F0809170
:10133000BA028230C1F71092BD028091350181302E
:1013400011F081E00BC082E391E061E0AE014D5FFE
:101350005F4F0E9447058B81880F880F26960FB636
:10136000F894DEBF0FBECDBFCF91DF911F910F91DB
:101370000895EF920F93DF93CF93CDB7DEB7289701
:101380000FB6F894DEBF0FBECDBF6C834D832E83A6
:101390000F83E88619821A820E94850D8091610070
:1013A000806180936100809162008061809362001F
:1013B0008A819981890F9D81890F9E81890F9F81E3
:1013C000890F9885890F89838EE091E061E0AE01F5
:1013D0004C5F5F4F0E9402058EE091E061E0AE013C
:1013E0004E5F5F4F0E9402058EE091E061E0AE012A
:1013F0004B5F5F4F0E9402058EE091E061E0AE011D
:101400004A5F5F4F0E9402058EE091E061E0AE010D
:10141000495F5F4F0E9402058EE091E061E0AE01FE
:10142000485F5F4F0E9402058EE091E061E0AE01EF
:101430004F5F5F4F0E9402058C81809392028A81E8
:101440008093930280EF0E94930D80919A008064B4
:1014500080939A0080919A0086FDFCCF8091620073
:101460008F7E809362001092B90280919A0080680A
:1014700080939A0081E08093BD0280913501813094
:1014800021F08091BA028230C1F71092BD028091A2
:101490003501813011F081E00BC082E391E061E021
:1014A000AE014D5F5F4F0E9447058B81880F880F0B
:1014B00028960FB6F894DEBF0FBECDBFCF91DF9157
:1014C0000F91EF900895EF92FF920F93DF93CF93D8
:1014D000CDB7DEB728970FB6F894DEBF0FBECDBFED
:1014E0006D834E832F830887198294E09A830E942C
:1014F000850D8A819981890F9E81890F9F81890F2E
:101500009885890F89838EE091E061E0AE014B5FA1
:101510005F4F0E9402058EE091E061E0AE014E5FF8
:101520005F4F0E9402058EE091E061E0AE014A5FEC
:101530005F4F0E9402058EE091E061E0AE01495FDD
:101540005F4F0E9402058EE091E061E0AE01485FCE
:101550005F4F0E9402058EE091E061E0AE014F5FB7
:101560005F4F0E9402058D81809392028A81809351
:10157000930280EF0E94930D80919A008064809383
:101580009A0080919A0086FDFCCF1092B90280915A
:101590009A00806880939A0081E08093BD028091D8
:1015A0003501813021F08091BA028230C1F710926A
:1015B000BD0280913501813011F081E019C082E3D4
:1015C00091E061E0AE014D5F5F4F0E9447058B8166
:1015D000882359F482E391E061E0AE014C5F5F4FF4
:1015E0000E9447058C81F70180838B81880F880FCB
:1015F00028960FB6F894DEBF0FBECDBFCF91DF9116
:101600000F91FF90EF900895EF920F93DF93CF9398
:10161000CDB7DEB728970FB6F894DEBF0FBECDBFAB
:101620006C834D832E830F83E886198293E09A831F
:101630000E94850D8A819981890F9D81890F9E81E4
:10164000890F9F81890F9885890F89838EE091E0AA
:1016500061E0AE014C5F5F4F0E9402058EE091E0B9
:1016600061E0AE014E5F5F4F0E9402058EE091E0A7
:1016700061E0AE014B5F5F4F0E9402058EE091E09A
:1016800061E0AE014A5F5F4F0E9402058EE091E08B
:1016900061E0AE01495F5F4F0E9402058EE091E07C
:1016A00061E0AE01485F5F4F0E9402058EE091E06D
:1016B00061E0AE014F5F5F4F0E9402058C81809315
:1016C00092028A818093930280EF0E94930D809111
:1016D0009A00806480939A0080919A0086FDFCCFE6
:1016E0001092B90280919A00806880939A0081E0FC
:1016F0008093BD0280913501813021F08091BA0242
:101700008230C1F71092BD0280913501813011F015
:1017100081E00BC082E391E061E0AE014D5F5F4F7D
:101720000E9447058B81880F880F28960FB6F89482
:10173000DEBF0FBECDBFCF91DF910F91EF90089527
:10174000CF92DF92EF92FF920F931F93DF93CF938D
:10175000CDB7DEB727970FB6F894DEBF0FBECDBF6B
:101760006D834E832F836801198292E09A830E94D1
:10177000850D8A819981890F9E81890F9F81890FAB
:1017800089838EE091E061E0AE014B5F5F4F0E9484
:1017900002058EE091E061E0AE014E5F5F4F0E9476
:1017A00002058EE091E061E0AE014A5F5F4F0E946A
:1017B00002058EE091E061E0AE01495F5F4F0E945B
:1017C00002058EE091E061E0AE014F5F5F4F0E9445
:1017D00002058D81809392028A81809393028F818A
:1017E0008093950280EF0E94930D80919A0080640F
:1017F00080939A0080919A0086FDFCCF1092B902E6
:1018000080919A00806880939A0081E08093BD0265
:1018100080913501813021F08091BA028230C1F788
:101820001092BD0280913501813011F081E028C015
:1018300082E391E061E0AE014D5F5F4F0E9447059A
:101840008B818823D1F400E010E094E0E92EF12CA4
:10185000EC0EFD1E0DC082E391E061E0A7010E9445
:101860004705F601E00FF11F8C8180830F5F1F4F4A
:101870008F8190E00817190774F38B81880F880F08
:1018800027960FB6F894DEBF0FBECDBFCF91DF9184
:101890001F910F91FF90EF90DF90CF9008950F93DD
:1018A0001F93DF93CF9300D000D000D0CDB7DEB729
:1018B0006C834D832E83198291E09A830E94850D5B
:1018C0008A819981890F9D81890F9E81890F8983E2
:1018D000F8019801290F311D04C089819191890F68
:1018E0008983E217F307C9F78EE091E061E0AE016A
:1018F0004C5F5F4F0E9402058EE091E061E0AE0117
:101900004E5F5F4F0E9402058EE091E061E0AE0104
:101910004B5F5F4F0E9402058EE091E061E0AE01F7
:101920004A5F5F4F0E9402058EE091E06E81A80140
:101930000E9402058EE091E061E0AE014F5F5F4FD3
:101940000E9402058C81809392028A818093930287
:1019500080EF0E94930D80919A00806480939A009A
:1019600080919A0086FDFCCF1092B90280919A0076
:10197000806880939A0081E08093BD028091350158
:10198000813021F08091BA028230C1F71092BD02FD
:1019900080913501813011F081E00BC082E391E04C
:1019A00061E0AE014D5F5F4F0E9447058B81880F5C
:1019B000880F26960FB6F894DEBF0FBECDBFCF912D
:1019C000DF911F910F910895EF920F93DF93CF93C3
:1019D000CDB7DEB728970FB6F894DEBF0FBECDBFE8
:1019E0006C834D832E830F83E88619821A820E94AE
:1019F000850D8A819981890F9D81890F9E81890F2B
:101A00009F81890F9885890F89838EE091E061E03D
:101A1000AE014C5F5F4F0E9402058EE091E061E0F5
:101A2000AE014E5F5F4F0E9402058EE091E061E0E3
:101A3000AE014B5F5F4F0E9402058EE091E061E0D6
:101A4000AE014A5F5F4F0E9402058EE091E061E0C7
:101A5000AE01495F5F4F0E9402058EE091E061E0B8
:101A6000AE01485F5F4F0E9402058EE091E061E0A9
:101A7000AE014F5F5F4F0E9402058C8180939202FE
:101A80008A818093930280EF0E94930D80919A0047
:101A9000806480939A0080919A0086FDFCCF10921A
:101AA000B90280919A00806880939A0081E08093C7
:101AB000BD0280913501813021F08091BA028230DF
:101AC000C1F71092BD0280913501813011F081E0A3
:101AD0000BC082E391E061E0AE014D5F5F4F0E9479
:101AE00047058B81880F880F28960FB6F894DEBFC4
:101AF0000FBECDBFCF91DF910F91EF90089590E091
:101B0000883008F091E0892F0895982F883010F0E0
:101B100081E0089588B39295990F907E8F71892BFB
:101B200088BB80E00895982F80919B0085FFFCCFB3
:101B300090939C0083EB92E00197F1F708958091D8
:101B40009B0087FFFCCF80919C0008958FB9779B05
:101B5000FECF8FB108951FB8779BFECF8FB1089548
:101B60001F93162F0E94850D8DE393E00197F1F7E7
:101B700080919B0085FFFCCF10939C0083EB92E04B
:101B80000197F1F780E01F910895CF93DF93EB0168
:101B90000E94850D8DE393E00197F1F720E030E09E
:101BA00008C02F5F3F4F8FEF2F3F380711F481E0C0
:101BB00008C080919B0087FFF4CF80919C008883B0
:101BC00080E0DF91CF9108955D9BFECF8CB90895A1
:101BD0005F9BFECF8CB1089584E9809374000895D3
:101BE00084EA809374008091740087FFFCCF809119
:101BF0007100887F883011F480E0089584E9809333
:101C0000740081E0089584E980937400089584EA63
:101C1000809374008091740087FFFCCF80917100E5
:101C2000887F803111F480E0089584E98093740006
:101C300082E0089590E0880F991F8093730084E8F4
:101C4000809374008091740087FFFCCF80917100B5
:101C5000887F883119F084E9809374000895880F93
:101C60008F5F8093730084E8809374008091740088
:101C700087FFFCCF80917100887F803419F084E960
:101C80008093740008958093730084E880937400B7
:101C90008091740087FFFCCF80917100887F88322B
:101CA00019F084E980937400089584EC80937400A3
:101CB0008091740087FFFCCF80917100887F803510
:101CC00019F084E98093740080917300089584E88A
:101CD000809374008091740087FFFCCF8091710025
:101CE000887F883519F084E9809374000895FF9205
:101CF0000F931F93182F062FF42E0E94F00D812FA3
:101D00000E941A0E802F0E94430E8F2D0E94430EB8
:101D100084E9809374001F910F91FF9008950F93B1
:101D20001F93082F162F0E94F00D802F0E941A0E6D
:101D3000812F0E94430E0E94070E802F0E942F0EBB
:101D40000E94550E182F0E94670E84E9809374003C
:101D5000812F1F910F910895809370000895EF9245
:101D6000FF920F931F93182F062FF72EE42E0E9439
:101D7000F00D813009F441C0812F90E0880F991F48
:101D800090708093730084E8809374008091740055
:101D900087FFFCCF80917100887F883139F4802FD4
:101DA0009F2D9C01F90190E024E81AC084E98093FA
:101DB000740083E022C080818093730020937400BC
:101DC0008091740087FFFCCF809171003196887FED
:101DD000883229F084E98093740084E00EC09F5F0C
:101DE0009E1548F381E08E1520F484E980937400F9
:101DF00003C081E08093E90280E01F910F91FF9082
:101E0000EF9008950F931F93CF93DF93082FEB016B
:101E1000142F8091E902813041F40E94070E823034
:101E200009F474C01092E90202C00E94F00D8130E2
:101E300009F46CC0802F90E0880F991F8160809317
:101E4000730084E8809374008091740087FFFCCF56
:101E500080917100887F803429F084E98093740038
:101E600085E054C01230D0F140E0212F30E0215005
:101E7000304054EC17C0509374008091740087FF79
:101E8000FCCF80917100887F803529F084E98093B0
:101E9000740086E03BC080917300FE01E40FF11DE9
:101EA00080834F5F842F90E08217930724F384E8A8
:101EB000809374008091740087FFFCCF8091710043
:101EC000887F883529F084E98093740087E01EC0FC
:101ED00080917300C10FD11D219713C084E88093B6
:101EE00074008091740087FFFCCF80917100887F1F
:101EF000883529F084E98093740088E007C08091D8
:101F00007300888384E98093740080E0DF91CF912F
:101F10001F910F910895922F483008F075C08A3CA8
:101F200061F18B3C30F4883C51F0893C09F06CC085
:101F300014C08C3C89F18D3C09F066C049C089B75A
:101F400030E002C0220F331F4A95E2F7962F92230A
:101F500060958623982B99BF1DC080916A0030E060
:101F600002C0220F331F4A95E2F7962F9223609505
:101F70008623982B90936A000DC08AB730E002C088
:101F8000220F331F4A95E2F7962F922360958623FE
:101F9000982B9ABF20E039C021B3E92FF0E002C0AE
:101FA000EE0FFF1F4A95E2F7262330E0862F90E0E0
:101FB0008E239F232817390711F420E001C022E067
:101FC00081B3962F9E2360958623982B91BB1DC0CD
:101FD00022B1E92FF0E002C0EE0FFF1F4A95E2F7B1
:101FE000262330E0862F90E08E239F232817390781
:101FF00011F420E001C022E082B1962F9E2360956B
:102000008623982B92B901C021E0822F0895483091
:1020100068F48B3C59F4822F90E002C0880F991F1E
:102020004A95E2F7682368BF80E0089581E008954B
:10203000F901483068F48B3C59F488B7862390E066
:1020400002C0959587954A95E2F7808380E00895D0
:1020500081E00895833001F1843028F4813091F0DB
:102060008230A8F40AC0853009F18530D0F086307E
:1020700011F1873031F181E008957093840360930A
:1020800083031DC0709386036093850318C070930B
:1020900088036093870313C070938A036093890356
:1020A0000EC070938C0360938B0309C070938E03F2
:1020B00060938D0304C07093900360938F0380E05E
:1020C0000895709392036093910380E008951F92A6
:1020D0000F920FB60F920BB60F9211242F933F93CE
:1020E0004F935F936F937F938F939F93AF93BF9320
:1020F000EF93FF93E0918303F09184030995FF919F
:10210000EF91BF91AF919F918F917F916F915F916F
:102110004F913F912F910F900BBE0F900FBE0F90DC
:102120001F9018951F920F920FB60F920BB60F9239
:1021300011242F933F934F935F936F937F938F93CC
:102140009F93AF93BF93EF93FF93E0918503F0913B
:1021500086030995FF91EF91BF91AF919F918F9168
:102160007F916F915F914F913F912F910F900BBE97
:102170000F900FBE0F901F9018951F920F920FB6E1
:102180000F920BB60F9211242F933F934F935F93AF
:102190006F937F938F939F93AF93BF93EF93FF932F
:1021A000E0918703F09188030995FF91EF91BF912A
:1021B000AF919F918F917F916F915F914F913F91DF
:1021C0002F910F900BBE0F900FBE0F901F90189580
:1021D0001F920F920FB60F920BB60F9211242F93EE
:1021E0003F934F935F936F937F938F939F93AF939F
:1021F000BF93EF93FF93E0918903F0918A030995D0
:10220000FF91EF91BF91AF919F918F917F916F91CE
:102210005F914F913F912F910F900BBE0F900FBE8A
:102220000F901F9018951F920F920FB60F920BB63A
:102230000F9211242F933F934F935F936F937F934C
:102240008F939F93AF93BF93EF93FF93E0918B0393
:10225000F0918C030995FF91EF91BF91AF919F9100
:102260008F917F916F915F914F913F912F910F903F
:102270000BBE0F900FBE0F901F9018951F920F92DC
:102280000FB60F920BB60F9211242F933F934F93DB
:102290005F936F937F938F939F93AF93BF93EF93CE
:1022A000FF93E0918D03F0918E030995FF91EF91DB
:1022B000BF91AF919F918F917F916F915F914F915E
:1022C0003F912F910F900BBE0F900FBE0F901F905C
:1022D00018951F920F920FB60F920BB60F92112402
:1022E0002F933F934F935F936F937F938F939F931E
:1022F000AF93BF93EF93FF93E0918F03F09190031F
:102300000995FF91EF91BF91AF919F918F917F912F
:102310006F915F914F913F912F910F900BBE0F9056
:102320000FBE0F901F9018951F920F920FB60F922D
:102330000BB60F9211242F933F934F935F936F939C
:102340007F938F939F93AF93BF93EF93FF93E0910E
:102350009103F09192030995FF91EF91BF91AF9195
:102360009F918F917F916F915F914F913F912F91AD
:102370000F900BBE0F900FBE0F901F901895922FCD
:10238000483008F0C0C08A3C09F44AC08B3C30F4A5
:10239000883C71F0893C09F0B6C026C08C3C09F439
:1023A00077C08C3C08F458C08D3C09F0ACC08CC0A0
:1023B0002AB3E92FF0E002C0EE0FFF1F4A95E2F7C3
:1023C000262330E0862F90E08E239F23281739079D
:1023D00011F420E001C022E08AB3962F9E2360957D
:1023E0008623982B9ABB90C027B3E92FF0E002C058
:1023F000EE0FFF1F4A95E2F7262330E0862F90E08C
:102400008E239F232817390711F420E001C022E012
:1024100087B3962F9E2360958623982B97BB74C015
:1024200024B3E92FF0E002C0EE0FFF1F4A95E2F758
:10243000262330E0862F90E08E239F23281739072C
:1024400011F420E001C022E084B3962F9E23609512
:102450008623982B94BB58C021B3E92FF0E002C02B
:10246000EE0FFF1F4A95E2F7262330E0862F90E01B
:102470008E239F232817390711F420E001C022E0A2
:1024800081B3962F9E2360958623982B91BB3CC0E9
:1024900022B1E92FF0E002C0EE0FFF1F4A95E2F7EC
:1024A000262330E0862F90E08E239F2328173907BC
:1024B00011F420E001C022E082B1962F9E236095A6
:1024C0008623982B92B920C020916100E92FF0E07B
:1024D00002C0EE0FFF1F4A95E2F7262330E0862F59
:1024E00090E08E239F232817390711F420E001C0C4
:1024F00022E080916100962F9E2360958623982B81
:102500009093610001C021E0822F0895FA016130AB
:10251000C9F58230D1F0833028F4882351F081301E
:1025200089F50DC08430E9F08430A8F0853051F58C
:102530001EC08AB38F3F21F580818BBB1FC087B33C
:102540008F3FF1F4808188BB19C084B38F3FC1F401
:10255000808185BB13C081B38F3F91F4808182BBA2
:102560000DC082B18F3F61F4808183B907C0809133
:1025700061008F3F29F480818093620080E008959C
:1025800082E0089581E00895FA01613009F042C0C7
:102590008636F1F0873628F4843651F08536D1F549
:1025A0000FC0883629F18836D8F0893699F529C0C8
:1025B0008AB3882311F490E001C092E089B31FC070
:1025C00087B3882311F490E001C092E086B317C06E
:1025D00084B3882311F490E001C092E083B30FC06C
:1025E00081B3882311F490E001C092E080B307C06A
:1025F00082B1882311F490E001C092E081B1808320
:102600000AC080916100882311F490E001C092E03B
:1026100080B1F5CF91E0892F0895483008F089C046
:102620008230C1F1833030F4882371F0813009F0B9
:1026300080C01DC0843009F452C0843008F43DC00D
:10264000853009F076C05DC05AB35623561709F09D
:102650006EC08BB330E002C0220F331F4A95E2F701
:10266000952F922350955823952B9BBB5EC057B353
:102670005623561709F05BC088B330E002C0220F22
:10268000331F4A95E2F7952F922350955823952BA7
:1026900098BB4BC054B35623561709F048C085B3B6
:1026A00030E002C0220F331F4A95E2F7952F9223A4
:1026B00050955823952B95BB38C051B356235617C8
:1026C000B1F582B330E002C0220F331F4A95E2F722
:1026D000952F922350955823952B92BB26C052B12B
:1026E0005623561721F583B130E002C0220F331F65
:1026F0004A95E2F7952F922350955823952B93B93D
:1027000014C0509161005623561789F480916200DD
:1027100030E002C0220F331F4A95E2F7952F922333
:1027200050955823952B9093620080E0089582E0A5
:10273000089581E00895F901483008F04BC08636CD
:1027400001F1873630F4843661F0853609F042C0F5
:1027500010C0883631F18836E0F0893609F03AC089
:1027600030C08AB3862311F420E001C022E089B38F
:102770001FC087B3862311F420E001C022E086B396
:1027800017C084B3862311F420E001C022E083B394
:102790000FC081B3862311F420E001C022E080B392
:1027A00007C082B1862311F420E001C022E081B18C
:1027B000862390E002C0959587954A95E2F780833D
:1027C0000AC080916100862311F420E001C022E05C
:1027D00080B1EECF21E0822F0895A0E2B0E0E3EFD8
:1027E000F3E10C94F21E69837A838B839C832D839F
:1027F0003E834F835887CE010196BE01675F7F4FAE
:102800000E948416CE010596BE016F5E7F4F0E9426
:1028100084169985923088F089898230C8F0943086
:1028200019F4823051F404C0843029F4923081F4D8
:1028300086E591E0C6C0923049F420E09A858A8905
:10284000981321E02A87CE010996BBC0823049F453
:1028500020E09A858A89981321E02A8BCE0141963F
:10286000B0C02D843E844F8458886D887E888F88C0
:10287000988CEE24FF248701AA24BB24650140E044
:1028800050E060E070E0E0E0F0E0C1018170907045
:10289000892BE9F0E60CF71C081D191D9A01AB0104
:1028A0002A0D3B1D4C1D5D1D80E090E0A0E0B0E0D6
:1028B000E614F7040805190520F481E090E0A0E093
:1028C000B0E0BA01A901480F591F6A1F7B1FAA0C6B
:1028D000BB1CCC1CDD1C97FE08C081E090E0A0E092
:1028E000B0E0A82AB92ACA2ADB2A3196E032F105DB
:1028F00049F0660C771C881C991C569447943794B1
:102900002794C3CFFA85EA892B893C898B859C85DE
:10291000280F391F2E5F3F4F17C0CA01817090707A
:10292000892B61F016950795F794E79480E090E085
:10293000A0E0B0E8E82AF92A0A2B1B2B76956795C8
:10294000579547952F5F3F4F77FDE7CF0CC0440F5A
:10295000551F661F771F17FD4160EE0CFF1C001FFF
:10296000111F21503040403090E0590790E0690736
:1029700090E4790760F32B8F3C8FDB01CA018F77DE
:102980009070A070B07080349105A105B10561F41C
:1029900047FD0AC0E114F1040105110529F0405C6E
:1029A0005F4F6F4F7F4F40781A8EFE1711F081E016
:1029B0008A8F4D8F5E8F6F8F78A383E0898FCE01D2
:1029C00049960E94AF15A096E2E10C940E1FA8E074
:1029D000B0E0EDEEF4E10C94FA1E7B018C01611580
:1029E00071058105910519F482E0898360C083E057
:1029F00089838EE1C82ED12CDC82CB82ED82FE82CF
:102A00000F831887C801B7010E946015FC01319738
:102A1000F7FF3BC0222733272E1B3F0B57016801CE
:102A2000022E04C0D694C794B794A7940A94D2F700
:102A300040E050E060E070E081E090E0A0E0B0E0D5
:102A400004C0880F991FAA1FBB1F2A95D2F70197B0
:102A5000A109B1098E219F21A023B1230097A105CF
:102A6000B10521F041E050E060E070E04A295B29C7
:102A70006C297D294D835E836F8378878EE190E09A
:102A80008E1B9F0B9C838B8312C0309781F00E2E80
:102A900004C0EE0CFF1C001F111F0A94D2F7ED8238
:102AA000FE820F831887CE1ADF0ADC82CB821A825D
:102AB000CE0101960E94AF152896EAE00C94161FED
:102AC000EF92FF920F931F937B018C0180E0E81639
:102AD00080E0F80681E0080780E0180788F48FEFAF
:102AE000E816F1040105110531F028F088E090E0C6
:102AF000A0E0B0E017C080E090E0A0E0B0E012C03D
:102B000080E0E81680E0F80680E0080781E018071A
:102B100028F088E190E0A0E0B0E004C080E190E01F
:102B2000A0E0B0E020E230E040E050E0281B390BAC
:102B30004A0B5B0B04C016950795F794E7948A95AA
:102B4000D2F7F701E25AFE4F8081281B3109410973
:102B50005109C9011F910F91FF90EF900895DF92E5
:102B6000EF92FF920F931F93FC01E480F5800681A2
:102B70001781D1808081823048F480E090E0A0E12C
:102B8000B0E0E82AF92A0A2B1B2BA5C0843009F4EF
:102B90009FC0823021F4EE24FF24870105C0E11498
:102BA000F1040105110519F4E0E0F0E096C062813E
:102BB00073819FEF623879070CF05BC022E83FEF2A
:102BC000261B370B2A3131052CF020E030E040E0A5
:102BD00050E02AC0B801A701022E04C0769567957F
:102BE000579547950A94D2F781E090E0A0E0B0E0D5
:102BF00004C0880F991FAA1FBB1F2A95D2F70197FF
:102C0000A109B1098E219F21A023B1230097A1051D
:102C1000B10521F081E090E0A0E0B0E09A01AB01C5
:102C2000282B392B4A2B5B2BDA01C9018F77907047
:102C3000A070B07080349105A105B10539F427FF6B
:102C400009C0205C3F4F4F4F5F4F04C0215C3F4F96
:102C50004F4F5F4FE0E0F0E02030A0E03A07A0E007
:102C60004A07A0E45A0710F0E1E0F0E079018A0198
:102C700027C06038710564F5FB01E158FF4FD801AA
:102C8000C7018F779070A070B07080349105A10556
:102C9000B10539F4E7FE0DC080E490E0A0E0B0E0BB
:102CA00004C08FE390E0A0E0B0E0E80EF91E0A1F38
:102CB0001B1F17FF05C016950795F794E7943196EB
:102CC00087E016950795F794E7948A95D1F705C0A4
:102CD000EE24FF248701EFEFF0E06E2F6795662763
:102CE0006795902F9F77D794DD24D7948E2F869564
:102CF000492F462B582F5D29B701CA011F910F910B
:102D0000FF90EF90DF900895FC01DB01408151813D
:102D10002281622F6F7770E0221F2227221F93816A
:102D2000892F880F822B282F30E0991F9927991F10
:102D300011969C93119721153105A9F5411551055F
:102D40006105710511F482E037C082E89FEF1396A8
:102D50009C938E9312979A01AB0167E0220F331F69
:102D6000441F551F6A95D1F783E08C930DC0220F45
:102D7000331F441F551F12968D919C9113970197F5
:102D800013969C938E931297203080E0380780E052
:102D9000480780E4580758F314962D933D934D93BC
:102DA0005C93179708952F3F310579F4411551052C
:102DB0006105710519F484E08C93089564FF03C0E4
:102DC00081E08C9312C01C9210C02F573040139694
:102DD0003C932E93129783E08C9387E0440F551F0A
:102DE000661F771F8A95D1F7706414964D935D9393
:102DF0006D937C93179708952F923F924F925F9215
:102E00006F927F928F929F92AF92BF92CF92DF92FA
:102E1000EF92FF920F931F93DF93CF93CDB7DEB75F
:102E200061970FB6F894DEBF0FBECDBF3C017F8720
:102E30006E876A01FC0117821682838181FD03C0BF
:102E40006FEF7FEF6FC39E012F5F3F4F398B288B52
:102E5000F3012381EE85FF8523FD859123FF819179
:102E6000FF87EE87882309F45AC3853251F4EE8533
:102E7000FF8523FD859123FF8191FF87EE878532B2
:102E800029F490E0B3010E947420E2CF982F10E063
:102E9000882499241032B0F49B3269F09C3228F4D3
:102EA000903251F0933271F40BC09D3239F090336F
:102EB00049F4116028C01260146025C0186023C056
:102EC000106121C017FD2AC0892F80538A3078F401
:102ED00016FF06C0FAE09F9E902C1124980E13C096
:102EE0003AE0839E802C1124880E10620CC09E3222
:102EF00021F416FD14C3106406C09C3611F410684A
:102F000002C0983659F4EE85FF8523FD959123FF85
:102F10009191FF87EE87992309F0BCCF892F8554C3
:102F2000833020F4812F8061905E07C0892F855601
:102F3000833008F09FC1812F8F7E86FD02C076E02E
:102F4000972E6FE3F62EF822953619F4F0E4FF2A57
:102F500007C0963619F420E8F22A02C091109A941C
:102F6000F7FE0AC03BE3391518F45CE3B52E02C046
:102F7000B92CB39427E009C047E0491520F4BB24DD
:102F800047E0942EF7CF292DBB24C60104969D87D8
:102F90008C87F6016081718182819381AE014F5FE0
:102FA0005F4F0B2D0E94291F6C010981202E3324B5
:102FB00000FF04C003FD02C01DE209C0F1FE02C013
:102FC0001BE205C0F2FC02C010E001C010E2C1012A
:102FD0008C709070892BB9F1112311F483E001C03A
:102FE00084E0881510F088240AC0881AF3FC07C012
:102FF00080E290E0B3010E9474208A94C9F7112303
:1030000029F0812F90E0B3010E94742023FE03C0B9
:103010000CE910E00EC000EA10E00BC0E114F1046E
:1030200009F0805290E0B3010E9474200F5F1F4F9F
:1030300005C0EF2CFF24F0E1EF22FF24F80184917A
:10304000882361F714C1F7FE12C0BC0C24FE04C033
:103050008A81813309F4BA941B141CF0BB24B39405
:103060002DC0F8E0FB1550F538E0B32E27C0F6FC74
:1030700025C0892D90E08C159D054CF02CEFC216D3
:103080002FEFD20624F030E8F32A01C09A94992059
:1030900049F0E2E0F0E0EC0FFD1FE90DF11D808149
:1030A0008033A1F3F7FE0AC0B92CB394892D90E0C8
:1030B000C816D90614F0992401C09C18F7FC03C067
:1030C00025E030E009C01C141D041CF021E030E0B4
:1030D00003C096012F5F3F4F112311F02F5F3F4F29
:1030E000992029F0892D90E00196280F391F882D0D
:1030F00090E02817390714F0882401C0821A4F2C59
:103100005524C20189709070892B39F008C080E283
:1031100090E0B3010E9474208A948820C1F71123A3
:1031200029F0812F90E0B3010E94742043FE07C074
:1031300008C080E390E0B3010E9474208A94882044
:10314000C1F7F7FE46C08601D7FE02C000E010E0DE
:1031500076010894E11CF11CE01AF10A41E050E00C
:103160004C0F5D1FE40EF51E26014B185108892DEA
:1031700090E0AA24BB24A81AB90A5FEF0F3F1507F5
:1031800029F48EE290E0B3010E947420C016D106AB
:1031900034F0401651061CF4F701808101C080E331
:1031A000015010400894E11CF11C0A151B052CF07D
:1031B00090E0B3010E947420E0CF0C151D0539F496
:1031C0009A81963318F4953311F424FE81E390E04C
:1031D0004BC08A81813309F00F7E90E0B3010E94D9
:1031E00074209920A1F08EE290E0B3010E94742037
:1031F00012E0E1E0F0E0EC0FFD1FE10FF11D1F5FB9
:10320000808190E0B3010E9474209A9491F744FC6D
:1032100003C085E690E002C085E490E0B3010E941F
:103220007420D7FC05C0C114D10441F404FF06C0CA
:10323000D094C194D108D3948DE201C08BE290E088
:10324000B3010E94742080E305C08F5F26EF3FEF3B
:10325000C20ED31E3AE0C316D104BCF790E0B3010E
:103260000E947420C601C096B3010E947420CC84D1
:10327000DD8452C1933631F0933799F0933509F0DC
:1032800059C023C0F601808189835E010894A11C86
:10329000B11C22E030E0C20ED31E21E0E22EF12C60
:1032A00012C0F601A080B18016FD03C06FEF7FEF62
:1032B00002C0692D70E022E030E0C20ED31EC501CD
:1032C0000E9427207C011F7713C0F601A080B180E7
:1032D00016FD03C06FEF7FEF02C0692D70E022E0A2
:1032E00030E0C20ED31EC5010E941C207C01106874
:1032F00013FF07C01BC080E290E0B3010E9474205E
:103300008A94882D90E0E816F906A8F30FC0F5011D
:1033100017FD859117FF81915F0190E0B3010E9435
:10332000742081108A940894E108F108E114F104F2
:1033300071F7F2C0943611F0993689F517FF08C07D
:10334000F601208131814281538184E090E00AC0FE
:10335000F601808191819C01442737FD4095542FCF
:1033600082E090E0C80ED91E9FE6F92EF12257FFA9
:1033700009C050954095309521953F4F4F4F5F4F75
:1033800090E8F92ACA01B901AE014F5F5F4F2AE008
:1033900030E00E94BA20E82EE889EE1A41C0953745
:1033A00021F41F7E2AE030E01CC0197F9F3661F0B7
:1033B000903720F4983509F0B2C00FC0903739F03B
:1033C000983709F0ACC004C028E030E00AC01061B2
:1033D00014FD146020E130E004C014FD166020E10B
:1033E00032E017FF08C0F60160817181828193810C
:1033F00044E050E008C0F60180819181BC0180E08A
:1034000090E042E050E0C40ED51EAE014F5F5F4F2A
:103410000E94BA20E82E5889E51A8FE7F82EF1228B
:10342000F6FE0BC08EEFF822E91438F4F4FE07C064
:10343000F2FC05C09FEEF92202C01E2D01C0192D1D
:10344000F4FE0DC0FE01EE0DF11D8081803319F4F4
:10345000E9EEFE2208C01F5FF2FE05C003C08F2DFB
:10346000867809F01F5F0F2DF3FC14C0F0FE0FC02B
:10347000181510F09E2C0BC09E2C980C911A182D2C
:1034800006C080E290E0B3010E9474201F5F18150F
:10349000C0F304C0181510F4811A01C0882404FF79
:1034A0000FC080E390E0B3010E94742002FF1DC0B2
:1034B00001FD03C088E790E00EC088E590E00BC0F6
:1034C000802F867891F001FF02C08BE201C080E27C
:1034D000F7FC8DE290E0B3010E94742006C080E307
:1034E00090E0B3010E9474209A94E914C0F3EA9426
:1034F000E1E0F0E0EC0FFD1FEE0DF11D808190E0AA
:10350000B3010E947420EE2091F706C080E290E0A3
:10351000B3010E9474208A948820C1F799CCF301EA
:1035200066817781CB0161960FB6F894DEBF0FBE3E
:10353000CDBFCF91DF911F910F91FF90EF90DF9062
:10354000CF90BF90AF909F908F907F906F905F9043
:103550004F903F902F900895FC0120FD08C023FD5F
:1035600005C022FF02C073836283518340830895A4
:10357000EF92FF920F931F9344FF02C033E011C0FC
:1035800046FF02C034E00DC0DB01FC01AA0FBB1FE7
:10359000EE1FFF1F1094D1F76A0F7B1F8E1F9F1F16
:1035A00031E0660F771F881F991F3150D1F77B01DB
:1035B0008C01E20EF11C011D111DA8019701B7013C
:1035C000CA011F910F91FF90EF9008950F931F93E1
:1035D000CF93DF938C01C8010E943220EC0197FD4C
:1035E00008C00E940120892BB1F7CE01B8010E94CA
:1035F000A020CE01DF91CF911F910F9108958F925E
:103600009F92AF92BF92DF92EF92FF920F931F9320
:10361000CF93DF935C01EB014A01122F0E9432200D
:10362000AC018B3219F08D3251F41068219709F4F6
:103630006DC0C5010E943220AC0197FD67C06DEFDF
:10364000D62ED1228D2D807301F54033F1F42197D0
:1036500009F447C0C5010E943220AC0197FD41C06A
:1036600082E0D82A483711F0483559F480E4D82A46
:103670002197B9F1C5010E943220AC0199232CF4A5
:1036800030C0D6FC02C080E1D82AEE24FF24870196
:10369000242F2053283088F0D4FC09C02A3068F049
:1036A000D6FE05C02F7D822F8151863028F0CA01B9
:1036B000B5010E94A02012C02750C801B7014D2DAE
:1036C0000E94B81A7B018C0182E0D82A219761F010
:1036D000C5010E943220AC0197FFDACFD1FC04C0B3
:1036E00015C0EE24FF248701D7FE08C01095009571
:1036F000F094E094E11CF11C011D111DC401B801FE
:10370000A7012D2D0E94AC1A81E001C080E0DF915D
:10371000CF911F910F91FF90EF90DF90BF90AF90EE
:103720009F908F9008956F927F928F929F92AF9209
:10373000BF92CF92DF92EF92FF920F931F93DF938E
:10374000CF93CDB7DEB7A0970FB6F894DEBF0FBE0C
:10375000CDBF5C016B018A017901FE01319680E2E7
:10376000DF011D928A95E9F770E030E060E040E00B
:1037700050E03F01A1E0B0E0F5018381F70183FD56
:10378000259183FF21917F01222309F481C02E35E9
:1037900019F44115510569F1872F90E084179507B9
:1037A00044F42D3551F12D3221F4332329F431E045
:1037B00021C0332309F4622F322F832F86958695FB
:1037C0008695F301E80FF11D832F87704D0102C02C
:1037D000880C991C8A95E2F72081282920833617C6
:1037E00011F430E007C0361710F43F5FE6CF3150D8
:1037F000E4CF71E04F5F5F4FBFCF332319F08E816D
:1038000080628E83772359F0FE0131969E012F5DF1
:103810003F4F808180958193E217F307D1F7992478
:1038200093943E010894611C711CC5010E943220D2
:10383000AC0197FD25C0869586958695F301E80F26
:10384000F11D808190E09A012770307002C095953B
:1038500087952A95E2F780FD05C0CA01B5010E944F
:10386000A0200EC00115110519F0D8014D938D014E
:103870000894C108D1089924C114D104B1F602C03A
:10388000992031F40115110529F0F801108202C0C8
:10389000EE24FF24C701A0960FB6F894DEBF0FBE3A
:1038A000CDBFCF91DF911F910F91FF90EF90DF90EF
:1038B000CF90BF90AF909F908F907F906F90089522
:1038C0002F923F925F926F927F928F929F92AF92D0
:1038D000BF92CF92DF92EF92FF920F931F93CF93FD
:1038E000DF933C017B011A010E943220EC018B32F4
:1038F00039F08D3211F0552411C0B0E85B2E01C0B3
:1039000055240894E108F108E114F10409F418C100
:10391000C3010E943220EC0197FD12C1CE010E942A
:1039200009208936910521F08E36910599F51DC043
:1039300009EB10E01CC00894E108F108E114F1045F
:1039400071F0C3010E943220EC0197FD08C00E9473
:103950000920D81661F0CE01B3010E94A02020E01A
:103960000C3B120709F0ECC008C006EB10E0F801B0
:103970000F5F1F4FD490DD20F1F6095B104029F056
:1039800080E090E0A0E8BFE7CFC080E090E0A0EC4E
:10399000BFE7CAC0CC24DD24882499245401AE0199
:1039A0004053242F4A3038F552E0552A852D90E0B7
:1039B000AC014870507052FE06C0452B11F50894BA
:1039C000C11CD11C1EC0452B19F00894C108D10898
:1039D000C501B40140E20E94B81A4B015C0188E9BC
:1039E000881689E9980689E9A80689E1B80648F0A9
:1039F00094E0592A06C04E3F81F453FC0EC0E8E023
:103A00005E2A0894E108F108E114F10431F0C301E1
:103A10000E943220EC0197FFC2CF51FE91C0C53603
:103A200019F0C53409F046C00894E108F108E11422
:103A3000F10409F485C0C3010E943220EC0197FD16
:103A40007FC08B3221F08D3269F4F0E15F2A089457
:103A5000E108F108E114F10409F472C0C3010E9405
:103A60003220EC01CE01C0970A9708F069C000E04F
:103A700010E0B801882777FD8095982FAE0140535C
:103A8000242F40E20E94B81A8B010894E108F10843
:103A9000E114F10439F0C3010E943220EC01C09717
:103AA0000A9738F3B80154FE03C0709561957F4FB3
:103AB000C60ED71EEF2831F0D7FD04C0CE01B301EA
:103AC0000E94A020C501B4010E94E714D7FE0DC0DA
:103AD000A5EDEA2EA0E0FA2ED094C194D108D3949B
:103AE000C0E2D0E000E010E00EC0FDEEEF2EF0E00E
:103AF000FF2EF6CFF70125913591459154910E9403
:103B0000ED13CC1ADD0ACC16DD06A0F7D695C795C5
:103B10000F5F1F4F0630110529F0ECEFFFEFEE0E9F
:103B2000FF1EF1CFDC01CB0157FCB058211431044A
:103B300029F0F10180839183A283B38381E001C0E6
:103B400080E0DF91CF911F910F91FF90EF90DF9078
:103B5000CF90BF90AF909F908F907F906F905F902D
:103B60003F902F9008955F926F927F928F929F92D5
:103B7000AF92BF92CF92DF92EF92FF920F931F937B
:103B8000CF93DF934C015B013A01FC01178216824F
:103B9000552404C1812F90E00E940120892B21F03F
:103BA000C4010E94E61AFAC0153249F4F501F3FC8B
:103BB0006591F3FE61915F01653269F415E2C4011C
:103BC0000E94322097FDF6C0181709F4E7C0B4012F
:103BD0000E94A020F4C06A3219F0162F00E006C03F
:103BE000F3FC1591F3FE11915F0101E0CC24DD247B
:103BF0000EC00260B60180E090E040E20E94B81A78
:103C00006B01F501F3FC1591F3FE11915F01212F7A
:103C100020532A3070F301FD04C0CC24CA94DC2C5C
:103C200004C0C114D10409F4CAC0183621F01C36EE
:103C300099F4F5010BC0F501F3FC6591F3FE619178
:103C4000683619F05F01162F07C008600460F3FCA6
:103C50001591F3FE11915F01112309F4B0C084EABC
:103C600090E0612F70E00E941120892B09F4A7C019
:103C7000802F00FF03C0EE24FF2407C0F301E08083
:103C8000F18022E030E0620E731E1E3651F4F40122
:103C90004681578160E070E0C701202F0E94AC1A76
:103CA0007DC01336B9F481FD03C011E0C12ED12CC3
:103CB000C4010E94322097FD7DC0E114F10419F087
:103CC000F70181937F010894C108D108C114D10480
:103CD00079F762C01B3559F4C401B601A7019501FB
:103CE0000E94931B5C01009709F056C050C0C401AC
:103CF0000E94E61A97FD5EC01F36D1F1103738F4E6
:103D00001436A1F11936A9F11835D1F52DC01337A4
:103D100051F0143718F4103799F526C0153731F1E2
:103D2000183771F521C0C4010E943220EC0197FDC3
:103D300015C00E940120892B29F0CE01B4010E94F8
:103D4000A0200CC0E114F10419F0F701C1937F0128
:103D50000894C108D108C114D10429F7E114F10471
:103D6000D9F0F701108218C0006403C0006201C0DE
:103D70000061C401B601A701202F0E94FF1A05C0EF
:103D8000C401B601A7010E94601C882329F4F40134
:103D90008381807379F413C000FF5394F401F3809E
:103DA000F501F3FC1591F3FE11915F01112309F068
:103DB000F1CE05C0552019F42FEF3FEF02C0252D9D
:103DC00030E0C901DF91CF911F910F91FF90EF90EB
:103DD000DF90CF90BF90AF909F908F907F906F902B
:103DE0005F9008952F923F924F925F926F927F92D1
:103DF0008F929F92AF92BF92CF92DF92EF92FF92FB
:103E00000F931F93CF93DF93CDB7DEB7CA1BDB0BA6
:103E10000FB6F894DEBF0FBECDBF09942A8839884B
:103E200048885F846E847D848C849B84AA84B98452
:103E3000C884DF80EE80FD800C811B81AA81B9815E
:103E4000CE0FD11D0FB6F894DEBF0FBECDBFED0172
:103E50000895283008F027E03327DA01990F311D43
:103E600087FD916000966105710539F432602E5F1F
:103E70003D9330E32A95E1F708959F3F30F0803875
:103E80007105610509F03C5F3C5F3D93913008F09E
:103E90008068911DDF93CF931F930F93FF92EF9252
:103EA000192F987F9695E92F96959695E90FFF27FC
:103EB000E55BFE4F99273327EE24FF24A701E70196
:103EC00005900894079428F4360FE71EF81E491F42
:103ED000511D660F771F881F991F0694A1F7059043
:103EE000079428F4E70EF81E491F561FC11D770FCF
:103EF000881F991F661F0694A1F70590079428F460
:103F0000F80E491F561FC71FD11D880F991F661F26
:103F1000771F0694A1F70590079420F4490F561FC8
:103F2000C71FD81F990F661F771F881F0694A9F710
:103F300084911095177041F0D695C7955795479580
:103F4000F794E7941A95C1F7E1EFF0E068941590C3
:103F5000159135916591959105907FE27395E118E2
:103F6000F10A430B560BC90BD009C0F7E10CF11E47
:103F7000431F561FC91FD01D7EF4703311F48A955C
:103F8000E6CFE894015030F0080F0AF4002702173A
:103F900008F4202F2395022F7A3328F079E37D93BC
:103FA0002A95E9F710C07D932A9589F6069497958E
:103FB0006795379517951794E118F10A430B560B3F
:103FC000C90BD00998F023957E9173957A3308F048
:103FD00070E37C932013B8F77E9170617D9330F08D
:103FE000839571E37D9370E32A95E1F71124EF90B7
:103FF000FF900F911F91CF91DF91992787FD9095A9
:104000000895911115C1803219F089508550D0F76B
:1040100008959111089581548A5108F4805E855A5B
:104020000895FC010590061621F00020D9F7C00183
:1040300008953197CF010895FC01059061507040BB
:104040000110D8F7809590958E0F9F1F0895FC0161
:104050006150704001900110D8F7809590958E0FB7
:104060009F1F0895CF93DF93EC014B8140FF1AC04F
:1040700046FF0AC04F7B4B838E819F8101969F83B1
:104080008E838A81282F2BC042FF13C0E881F981DB
:104090008081282F332727FD30952115310529F4FC
:1040A00040624B832FEF3FEF1BC03196F983E883CB
:1040B00011C0EA85FB85CE0109959C0197FF0AC0D6
:1040C0009B812F5F3F4F11F080E201C080E1892B7F
:1040D0008B83E8CF8E819F8101969F838E8330E012
:1040E000C901DF91CF9108950F931F93CF93DF9371
:1040F0008C01EB018B8181FF1BC082FF0DC02E81E3
:104100003F818C819D812817390764F4E881F9810A
:104110000193F983E88306C0E885F985802F099526
:10412000892B31F48E819F8101969F838E8302C0FB
:104130000FEF1FEFC801DF91CF911F910F910895ED
:104140009C01FB01838180FF11C086FD0FC09FEFA2
:104150002F3F390759F0228380648F7D83838681C6
:10416000978101979783868330E002C02FEF3FEF5E
:10417000C9010895FA01AA27283051F1203181F1AF
:10418000E8946F936E7F6E5F7F4F8F4F9F4FAF4F5F
:10419000B1E03ED0B4E03CD0670F781F891F9A1F72
:1041A000A11D680F791F8A1F911DA11D6A0F711D26
:1041B000811D911DA11D20D009F468943F912AE032
:1041C000269F11243019305D3193DEF6CF0108951A
:1041D000462F4770405D4193B3E00FD0C9F7F6CF4B
:1041E000462F4F70405D4A3318F0495D31FD405213
:1041F000419302D0A9F7EACFB4E0A69597958795A9
:1042000077956795BA95C9F7009761057105089587
:104210009B01AC010A2E0694579547953795279533
:10422000BA95C9F7620F731F841F951FA01D0895CB
:0A423000992788270895F894FFCF1E
:10423A0000000003000000004C015A0100000000C9
:10424A002300000000000000000000000000000041
:10425A000000000000000000000000000000000054
:10426A000000000023000000000000000000000021
:10427A000000000000000000000000000000000034
:10428A000000000000000000000000000000000123
:10429A0002020303030304040404040404040505DA
:1042AA0005050505050505050505050505050606B2
:1042BA000606060606060606060606060606060694
:1042CA000606060606060606060606060606070782
:1042DA000707070707070707070707070707070764
:1042EA000707070707070707070707070707070754
:1042FA000707070707070707070707070707070744
:10430A000707070707070707070707070707080831
:10431A000808080808080808080808080808080813
:10432A000808080808080808080808080808080803
:10433A0008080808080808080808080808080808F3
:10434A0008080808080808080808080808080808E3
:10435A0008080808080808080808080808080808D3
:10436A0008080808080808080808080808080808C3
:10437A0008080808080808080808080808080808B3
:0E438A000808080808080808080808080808B5
:00000001FF
